:100000000C94F4010C94442A0C94762A0C94A82A9B
:100010000C9413020C9413020C9413020C9413020C
:100020000C9413020C94122A0C9413020C941302D5
:100030000C9413020C9470280C9413020C947028E6
:100040000C9413020C9413020C9413020C941302DC
:100050000C9413020C9413020C9413020C941302CC
:100060000C9413020C9413020C9413020C941302BC
:100070000C9413020C9413020C9413020C941302AC
:100080000C94A3280C9413020C9413020C941302E6
:100090000C9413020C9413020C9413020C9413028C
:1000A0000C9413020C9413020C9413020C9413027C
:1000B0000C9413020C9413020C9413020C9413026C
:1000C0000C9413020C9413020C9413020C9413025C
:1000D0000C9413020C9413020C9413020C9413024C
:1000E0000C9413020C94DA0D0C94CB0D0C949B0D14
:1000F0000C94AA0E0C948C0D0C947D0D0C946B0D2D
:100100000C945C0D0C9413020C9413020C941302C7
:100110000C9413020C9413020C9413020C9413020B
:1001200004170A170D171017131716171C1719178E
:100130001F17221725172E173117341737172B17AC
:10014000011707173A173D172817FE164661696C05
:10015000656420746F206C6F6164206D7920414468
:1001600043206472697665720D0A004661696C65A8
:100170006420746F206F70656E2073656E736F728C
:10018000206472697665720D0A00554E4B4F574ECA
:100190000045787465726E616C20526573657400F9
:1001A00042726F776E204F75742044657465637476
:1001B000004661696C656420746F206372656174C8
:1001C000652053656D6170686F7265004661696C8A
:1001D000656420746F20637265617465205369677C
:1001E0006E616C004B65726E656C2066756E637433
:1001F000696F6E206E6F7420696D706C656D656ED1
:100200007465640044657669636520447269766547
:1002100072204572726F72005761746368646F6711
:100220002052657374617274005357205761746370
:1002300068646F6720526573746172740054696DED
:100240006572204F766572666C6F7700556E6861D7
:100250006E646C656420496E74657272757074208A
:10026000566563746F72004C6F7720566F6C7461C3
:100270006765004578747261205461736B207374F4
:1002800061727465642C206973206E726B5F6366A3
:10029000672E68206F6B3F0049646C65206F722089
:1002A0004B65726E656C20537461636B204F76658D
:1002B00072666C6F7700556E6578706563746564FF
:1002C0002052657374617274004475706C69636167
:1002D000746564205461736B2049440053636865FE
:1002E00064756C6572204D69737365642057616B2A
:1002F000657570005461736B205265736572766525
:100300002056696F6C61746564005265736572761E
:1003100065204572726F7220696E20536368656450
:10032000756C657200496E76616C69642053746106
:10033000636B20506F696E746572005461736B203B
:10034000537461636B204F766572666C6F770053F0
:100350007461636B20776173206E6F7420646566CF
:10036000696E6564206173206C6172676520656EDB
:100370006F75676821005461736B20706572696FD7
:100380006420746F6F206C617267652E20506572F7
:10039000696F64206D757374206265206C6573737A
:1003A000207468616E203631207365636F6E6473EC
:1003B0002E00293A20002A4E524B204552524F52CD
:1003C00028000D0A535441434B2044554D500D0A0B
:1003D0000045464765666700202B2D2E30313233AD
:1003E000343536373839680011241FBECFEFD1E4D9
:1003F000DEBFCDBF15E0A0E0B2E0EAE9FDE600E037
:100400000BBF02C007900D92A633B107D9F717E0D2
:10041000A6E3B5E001C01D92A43AB107E1F70E943E
:1004200091030C94CB360C9458282F923F924F9204
:100430005F926F927F928F929F92AF92BF92CF9274
:10044000DF92EF92FF920F931F93DF93CF9300D031
:1004500000D0CDB7DEB700D000D080E092E0ADB7DD
:10046000BEB712969C938E93119714961C921E926F
:1004700013970E9478340F900F900F900F900E9466
:100480002D2000D000D0EDB7FEB731962AE132E042
:10049000ADB7BEB712963C932E9311978283138209
:1004A0000E9478340F900F900F900F9083E065E0DA
:1004B0000E941A26882E8F3F21F48BE691E00E943D
:1004C000D60F90E0AA2400E0BB24992420E010E09D
:1004D0002E010894411C511C89E2282E82E0382EFE
:1004E000882D61E045E02C839B830E94C226882DE5
:1004F000B20142E00E94A32649815A814E5A5140DE
:10050000BA01615070402C819B816E31710508F4F5
:100510009394BA016F5170406C33710510F42F5FE2
:100520001EC0BA01685270406635710510F4B3946C
:1005300016C0BA01665970406333710510F4A39474
:100540000EC0BA0166507F4F6C34710510F40F5F16
:1005500006C0425A5E4F4333510508F49F5F19307D
:1005600009F08FC0EB2CFF24E7FCF094602E772479
:1005700067FC70940A2D112707FD1095C92EDD2404
:10058000C7FCD094EDB7FEB73C970FB6F894FEBF0A
:100590000FBEEDBF3196ADB7BEB712963C922E920C
:1005A0001197822F992787FD909593838283F582F7
:1005B000E4827782668211870087D386C2862C8385
:1005C0000E947834EDB7FEB73C960FB6F894FEBFA4
:1005D0000FBEEDBF2C81293054F0F92DF3303CF4DF
:1005E000BB2099F4AA2089F48BE792E009C0892DF9
:1005F00087305CF0BB2049F4AA2039F481E992E00D
:100600000E94913490E000E03AC06E0C7F1C6114AF
:100610007104B9F0C601800F911F823091058CF4EE
:1006200024307CF400D000D0E9EAF2E0ADB7BEB7E8
:100630001296FC93EE9311971496FC92EE921397F8
:1006400014C0C00ED11EF2E0CF16D104A4F000D029
:1006500000D0E9ECF2E0ADB7BEB71296FC93EE9392
:10066000119714961C930E9313970E9478340F9051
:100670000F900F900F9090E0AA2400E0BB2420E0A0
:1006800010E01F5F2C839B830E949A1F2C819B810B
:1006900027CFCF93DF9385E192E090934405809339
:1006A0004305CEE3D5E0CE0165E675E040E850E0D5
:1006B0000E941E2B81E088878F8389878A871B860B
:1006C0001C861D861E8680E091EEA5EFB5E08F8723
:1006D000988BA98BBA8B1B8A1C8A1D8A1E8A80EC78
:1006E00091EEA4EEB0E08F8B988FA98FBA8F1B8EFE
:1006F0001C8E1D8E1E8E1F8E18A219A21AA2CE014C
:100700000E94D61DDF91CF91089589E798E063E0BC
:100710000E94FE258F3F21F48CE491E00E94D60FC9
:1007200008950E94F30F80E190E00E94071486EE86
:1007300092E00E9491340E94E01460E070E0CB01EE
:1007400020E030E0A9010E949E210E9485030E94C2
:1007500049030E947F1580E090E0089580919406FF
:10076000813051F181E08093940670E060FF18C001
:100770008091BF030E94F60F1092990680917C0031
:10078000807E80937C0090917C0080917C00807EB4
:10079000892B80937C0088EE93E00E940D270AC08D
:1007A000CB0186709070009739F467707070611596
:1007B000710521F081E008958FEF08958FEF08957E
:1007C0008091BF030E948010109294060E94BD0881
:1007D000EAE7F0E080818F77808381E008956130DF
:1007E00019F48091990608958FEF0895613061F5AD
:1007F0002C3069F42093990680917C00807E809350
:100800007C0080917C0090917C00836013C02E302E
:1008100028F081E00E94A7168FEF08952093990693
:1008200080917C00807E80937C0080917C00909100
:100830007C00822B907E892B80937C0088EC90E05A
:100840000E940D2781E008958FEF0895EF92FF92A7
:100850000F931F93DF93CF93CDB7DEB766970FB695
:10086000F894DEBF0FBECDBF8AEA90E066E170E08B
:100870008E010F5F1F4FA8010E94C708F801AAE66A
:10088000B6E09E01295E3F4FF080EE24818190E02A
:100890008E299F298D939D933296E217F307A1F736
:1008A00066960FB6F894DEBF0FBECDBFCF91DF9135
:1008B0001F910F91FF90EF900895EAE7F0E083E039
:1008C000808380818068808310929906ACE7B0E0D5
:1008D0008C91807E8C939C918C91807E892B8C93C3
:1008E00080818F77808308951F931091BF03812F9C
:1008F00061E00E946712812F0E94F60F1091D403CD
:10090000812F60E00E946712812F0E948010109159
:10091000BE03812F60E00E946712812F0E94801029
:1009200080E00E94CC130E945D040E94AD088EEE10
:100930000E94AA080E9426041092940681E01F914A
:10094000089588EC90E00E940D27089580917A0028
:10095000806480937A0080917A0084FFFCCF0E94AB
:10096000A1042091780030E040917900942F80E03C
:10097000282B392BC90108952F923F924F925F92F5
:100980006F927F928F929F92AF92BF92CF92DF929F
:10099000EF92FF920F931F93DF93CF9300D000D07D
:1009A0000F92CDB7DEB78983A0909006B0909106E4
:1009B000C0909206D090930620E630EF4FEF5FEFA5
:1009C000A20EB31EC41ED51EA0928006B092810650
:1009D000C0928206D0928306C601B501A601950198
:1009E0000E945A3320E030E140E050E00E949B3307
:1009F000922E832E342E252E60916C0670916D06FA
:100A0000882777FD8095982FA60195010E945A337B
:100A1000412C38E0532E612C712CA30192010E94CD
:100A20009B3379018A0180916A0690916B06AA270F
:100A300097FDA095BA2F22E0880F991FAA1FBB1F10
:100A40002A95D1F7E80EF91E0A1F1B1F2091780680
:100A500030917906442737FD4095542F692D782D24
:100A6000832D922D0E945A33A30192010E949B3341
:100A7000E20EF31E041F151F098004C0EE0CFF1CBC
:100A8000001F111F0A94D2F782E090E0A0E0B0E0CE
:100A9000E80EF91E0A1F1B1FF4E04F2E512C612C8B
:100AA000712CC801B701A30192010E949B332A83D4
:100AB0003B834C835D832093AF063093B006409315
:100AC000B1065093B20660916E0670916F0688274A
:100AD00077FD8095982FA60195010E945A3320E05A
:100AE00030E240E050E00E949B3379018A0120917E
:100AF000760630917706442737FD4095542F692DAF
:100B0000782D832D922D0E945A3320E030E041E071
:100B100050E00E949B3382E090E0A0E0B0E0E80E5D
:100B2000F91E0A1F1B1FE20EF31E041F151FC8012A
:100B3000B701A30192010E949B3320939A06309340
:100B40009B0640939C0650939D06CA01B9016050D4
:100B500070488F4F9F4F209170063091710640E092
:100B600050E00E945A3320E030E840E050E00E941C
:100B70009B3379018A0120939E0630939F06409310
:100B8000A0065093A1066091A7067091A8068091D7
:100B9000A9069091AA062A813B814C815D81621B46
:100BA000730B840B950B20E533EC40E050E009809B
:100BB00004C055954795379527950A94D2F70E941A
:100BC0005A336093A3067093A4068093A50690936E
:100BD000A60697FD09C0660F771F881F991FA801F9
:100BE00097010E94793308C0A80197010E947933C8
:100BF000220F331F441F551F2093AB063093AC06C2
:100C00004093AD065093AE06A090AB06B090AC06F4
:100C1000C090AD06D090AE06C601B50120E031E02F
:100C200040E050E00E949B33B901CA010E945A3350
:100C30002EED3BE040E050E00E945A33E12CF12CD5
:100C400021E0022F112DA80197010E949B33290159
:100C50003A01209395063093960640939706509359
:100C60009806C601B50123E433EE4FEF5FEF0E9413
:100C70005A33A80197010E949B3320938806309332
:100C8000890640938A0650938B06CA01B9016153C5
:100C9000714F8F4F9F4F640D751D861D971D20E16D
:100CA00030E040E050E00E949B332A0D3B1D4C1D7C
:100CB0005D1D2093AB063093AC064093AD06509378
:100CC000AE06B901CA010F900F900F900F900F90D0
:100CD000CF91DF911F910F91FF90EF90DF90CF9018
:100CE000BF90AF909F908F907F906F905F904F904C
:100CF0003F902F900895EF92FF920F931F932091B2
:100D000074063091750640E050E060918406709161
:100D100085068091860690918706621B730B840B73
:100D2000950B209172063091730640E050E00E94CE
:100D30005A3320E030E840E050E00E949B337901D4
:100D40008A01209395063093960640939706509318
:100D5000980660917C0670917D06882777FD8095C6
:100D6000982F4BE0660F771F881F991F4A95D1F780
:100D700020917E0630917F06442737FD4095542F01
:100D80002E0D3F1D401F511F0E949B33209388064C
:100D90003093890640938A0650938B062E0D3F1D93
:100DA000401F511F20939006309391064093920666
:100DB00050939306CA01B901685F7F4F8F4F9F4FD1
:100DC00020E130E040E050E00E949B33F9012093A5
:100DD0008C06F0938D0640938E0650938F06B901D2
:100DE000CA011F910F91FF90EF900895DF93CF9369
:100DF00000D00F92CDB7DEB78EE2898384EF90E00A
:100E000061E070E0AE014F5F5F4F0E94E60984E948
:100E100091E10E940D2786EF90E062E070E0AE0164
:100E20004E5F5F4F0E94C7083A8120E08B8190E0BF
:100E3000822B932BA0E0B0E08093840690938506EC
:100E4000A0938606B09387060F900F900F90CF91D6
:100E5000DF9108950E94F6060E947B0608951F9375
:100E6000DF93CF9300D000D0CDB7DEB7182F829597
:100E7000880F880F807C8C5C898384EF90E061E030
:100E800070E0AE014F5F5F4F0E94E60984E991E197
:100E90000E940D2786EF90E063E070E0AE014E5FA8
:100EA0005F4F0E94C7082B8130E040E050E0542F94
:100EB000432F322F22278A8190E0A0E0B0E0DC01AE
:100EC00099278827282B392B4A2B5B2B8C81280FBD
:100ED000311D411D511D88E090E0811B910904C026
:100EE00055954795379527958A95D2F72093A7066C
:100EF0003093A8064093A9065093AA060F900F902E
:100F00000F900F90CF91DF911F9108951F93182F8D
:100F10000E942F07812F0E94BC041F9108958F9279
:100F20009F92AF92BF92CF92DF92EF92FF920F9378
:100F30001F93DF93CF930F92CDB7DEB74A01809115
:100F40007A00806880937A00822F8150823018F076
:100F5000243009F0BFC080919906883090F429832D
:100F60000E94A6042981223021F4F4018083918318
:100F700021C0213009F0A6C0969587959695879552
:100F800021C08D3011F50091BE03802F61E02983CF
:100F90000E946712802F0E948010802F60E00E94C4
:100FA00067122981223041F4802F0E940211F4013E
:100FB0008083118281E087C0213009F083C0802FB7
:100FC0000E940211F40180837DC08C3009F042C080
:100FD000EE24FF2400E010E091E0C92E94E0D92E29
:100FE00080917A00806480937A0080917A0084FFF7
:100FF000FCCF80E290E029830E940D278091780049
:1010000090E030917900B32EAA248A299B29298166
:101010008C159D0508F46C010817190708F48C015C
:101020000894E11CF11CF0E0EF16F1E0FF06C1F6B8
:101030000C191D09223021F4F40100831183BACF69
:10104000213009F03FC01695079516950795F401D4
:10105000008338C08B30F9F41092A2067A99FECF43
:101060007A9BFECF8091A2068F5F8093A2067A9929
:10107000F9CFF401808311828091A20690E0990F4C
:10108000880B982F82838091A20690E0990F880B9D
:10109000982F838317C0982F9950923098F424305A
:1010A000C9F48A3019F40E942A0705C00E942A0751
:1010B00080E00E948607F4016083718382839383BA
:1010C00083E001C080E090917A009F7790937A004E
:1010D0008F5F01C080E00F90CF91DF911F910F9142
:1010E000FF90EF90DF90CF90BF90AF909F908F9048
:1010F00008958230D1F0833028F4882351F0813074
:1011000009F50BC08430D1F0843098F08530D1F4EB
:1011100008C080E00E947404089581E00E94AE033C
:10112000089585E00E948F07089582E00E94E00301
:101130000895613069F480919906089584E00E94D1
:10114000F60308958CE060E00E94581780E008954F
:101150008FEF08958093B406089582E08093B800DD
:101160001092B900E4E6F0E080818F778083ECEBA9
:10117000F0E08081846080830895E4E6F0E080817F
:101180008083ECEBF0E080818B7F80830895FA010F
:101190009770990F2091B406922B40E054EA34E8FE
:1011A000A92FA1604F5F453609F48DC05093BC0054
:1011B0002091BC0027FFFCCF2091B900287F20930D
:1011C000B306203129F0283389F3283009F07BC099
:1011D0009093BB003093BC002091BC0027FFFCCF54
:1011E0002091B900287F2093B3062032D9F228330A
:1011F000E9F2283109F061C08093BB003093BC0054
:101200002091BC0027FFFCCF2091B900287F2093BC
:10121000B306203379F1283349F2283209F04DC062
:101220005093BC002091BC0027FFFCCF2091B90057
:10123000287F2093B306203129F0283309F4B6CF54
:101240002830D9F5A093BB003093BC002091BC009E
:1012500027FFFCCF2091B900287F2093B3062034CC
:1012600029F0283439F0283341F5A0CF20E030E0D0
:1012700094EC1FC020E030E022C06130710509F419
:1012800094E89093BC008091BC0087FFFCCF8091D4
:10129000B900887F8093B306803521F0883569F4E2
:1012A00060E070E08091BB0081932F5F3F4F615001
:1012B0007040161617060CF302C02FEF3FEF84E9BB
:1012C0008093BC0002C02FEF3FEFC9010895680F63
:1012D000791F9C0127606217730718F0B9016F5FCF
:1012E0007F4F392F3770330F2091B406322BE0E057
:1012F000A4EAF4E8EF5FE53609F464C0A093BC000B
:101300002091BC0027FFFCCF2091B900287F2093BB
:10131000B306203129F0283389F3283009F052C070
:101320003093BB00F093BC002091BC0027FFFCCFA2
:101330002091B900287F2093B3062032D9F22833B8
:10134000E9F22831C9F58093BB00F093BC002091ED
:10135000BC0027FFFCCF2091B900287F2093B30663
:10136000203329F0283351F2283231F503C020E030
:1013700030E024C0681B790B842F952FFC0120E0FE
:1013800030E044E812C081918093BB004093BC00E0
:101390008091BC0087FFFCCF8091B900887F80934B
:1013A000B306883249F42F5F3F4FCB01821B930B6A
:1013B0001816190644F302C02FEF3FEF84E980931B
:1013C000BC0002C02FEF3FEFC9010895CF92DF921A
:1013D000EF92FF920F931F93CF93DF937C01EB016A
:1013E0006A0100E010E0C701BE01A6010E94670982
:1013F0002FEF8F3F920761F0C81BD90B080F191F01
:101400001C161D063CF4E80EF91EC80ED91EEBCFC3
:101410000FEF1FEFC801DF91CF911F910F91FF9048
:10142000EF90DF90CF90089500D000D0EDB7FEB7D9
:10143000319683EF92E0ADB7BEB712969C938E9330
:1014400011978091B306828313820E9478340F90A3
:101450000F900F900F900895909141019F719F31CF
:10146000D9F380934201089581E08093BB060895EB
:101470001092BB060895809141018F718F31D9F38D
:10148000809141018F71D1F08F30C1F08091410185
:101490008F71883041F088E00E942C0A80914101D0
:1014A0008F718830D9F7809139018260809339013A
:1014B000809141018F7111F08F30D1F708958091A3
:1014C00041018F718F31D9F3809141018F7111F0FA
:1014D0008F3051F4809139018D7F80933901809153
:1014E00041018F718830D9F70895E5E4F1E09081EA
:1014F000907F908390818F70892B80830895E7E59A
:10150000F1E080818D7F80830895E7E5F1E08081BF
:10151000826080830895EEE6F1E080818F7E808393
:101520000895EEE6F1E080818061808308958093E4
:101530006001909361019093C5068093C40608955D
:101540009093BF068093BE06E8E4F1E08081807E40
:1015500080838081682B6083089590933705809302
:1015600036050895909339058093380508951F93A3
:1015700070E27093440170EC709345016062609377
:10158000480165EC6093490167EA60934B0160E8AC
:1015900060934C012093600130936101409362019C
:1015A00050936301E6E4F1E01081A08160817081D5
:1015B0001295169517701295110F110F107C7295D8
:1015C00076957370172BA295A695A770B0E0A370BF
:1015D000B07074E0AA0FBB1F7A95E1F71A2B6295E1
:1015E0006695677070E063707070660F771F660FA6
:1015F000771F162B10936D016081E081E295E695CF
:10160000E370E06462956695677070E06370707077
:10161000660F771FE62BE0936E0110926C016FEF5F
:1016200060934E019093BF068093BE061092C00651
:101630001092C1065093C3064093C2063093C5066C
:101640002093C4061092C60681E08093E0061092B3
:10165000FF061092CF061092BB061F91089586E1F7
:101660000E942C0A089586E10E942C0A089588E0C1
:101670000E942C0A1092FF0608952F923F924F92DB
:101680005F927F928F929F92AF92BF92CF92DF92A2
:10169000EF92FF920F931F93CF93DF93EC011B0107
:1016A0008091E006882309F40EC18E819091C006D6
:1016B0009F5F9093C006E1E8F1E081708295880F0A
:1016C000807281648093810188E881838091BB0668
:1016D000882349F08FEF82838AEA9AEA908787838A
:1016E0008FEF9FEF10C08091C006828390916101BF
:1016F00080916001392F20E090E0822B932B90871E
:1017000087838881998196838583909163018091F5
:101710006201392F20E090E0822B932B9483838306
:101720004A81242F332727FD30956B817C818AE8FD
:1017300091E0532F0E94F8338A81855F8093800166
:10174000709041018FE17822872D81508230C0F363
:10175000872D8131A9F3823199F38F3189F3883054
:1017600039F0863029F0863119F0893009F0ABC0A4
:1017700086E10E942C0A8D81882369F080914801BE
:101780008068809348018091410187FFFCCF809160
:10179000410186FF98C089E00E942C0A8E8188232F
:1017A00019F089E10E942C0A21143104A9F187EC77
:1017B00096E00E9433208091C7069091C806A091C0
:1017C000C906B091CA068093E1069093E206A09301
:1017D000E306B093E406B10180E090E020E432E457
:1017E0004FE050E00E945A332091CB063091CC0656
:1017F0004091CD065091CE06620F731F841F951F36
:101800006093E5067093E6068093E7069093E806FA
:1018100081EE96E00E9420211092CF0682E00E9485
:101820002C0A4424552408C00894411C511C88EEFD
:1018300048168DEF580621F08091CF068823A1F33A
:101840002114310459F187EC96E00E94332080E0A6
:1018500097E00091E1061091E2062091E3063091B5
:10186000E4064091E5065091E6066091E706709126
:10187000E8068090C7069090C806A090C906B09070
:10188000CA06C090CB06D090CC06E090CD06F09072
:10189000CE060E9491208F3F09F0BECF8E81882313
:1018A00031F08091420182958695877029F488EE07
:1018B00048168DEF580611F41FEF01C011E0872D77
:1018C0000E942C0A01C01FEF812FDF91CF911F9141
:1018D0000F91FF90EF90DF90CF90BF90AF909F90CF
:1018E0008F907F905F904F903F902F90089560E091
:1018F00070E00E943D0B08950F931F938091E006C6
:10190000882349F1109141011F71812F815082304C
:10191000C8F31131B9F31231A9F31F3199F318301B
:1019200021F0163011F01631B1F486E10E942C0A34
:10193000809148018068809348018091410187FF30
:10194000FCCF00914101812F0E942C0A81E006FD0D
:1019500003C080E001C08FEF1F910F910895809127
:10196000E006882309F4A2C08091FF06882309F4C9
:101970009FC080917B01E091BE06F091BF0690E090
:1019800002972481332727FD3095281739070CF457
:1019900091C0E091BE06F091BF06809182018083E4
:1019A000E091BE06F091BF06809187019091880179
:1019B00092838183E091BE06F091BF0680917B0106
:1019C0008B508383A091BE06B091BF06E091BE0606
:1019D000F091BF0613969C911397848189173CF070
:1019E000E091BE06F091BF06838187FF0DC0109283
:1019F000FF0680914C018F7780934C0180914C01C0
:101A0000806880934C0152C0E091BE06F091BF0601
:101A1000A091BE06B091BF0613964C91242F332798
:101A200027FD30958581968169E871E0532F0E94EA
:101A3000F833E091BE06F091BF0680918001829557
:101A4000869581708783E091BE06F091BF068091F4
:101A500047018087E091BE06F091BF068091460164
:101A60008695869586958187E091BE06F091BF06A2
:101A7000809147018287A091BE06B091BF06E09198
:101A80007B01F0E0E058FE4F80811B968C931B9702
:101A90001092FF0680914C018F7780934C018091CA
:101AA0004C01806880934C0181E008958FEF089588
:101AB00080E008958FEF08951F920F920FB60F9256
:101AC00011248F9380E880934F018F910F900FBE68
:101AD0000F901F9018951F920F920FB60F9211241E
:101AE0008F9381E08093CF0680E480934F018F91A4
:101AF0000F900FBE0F901F9018951F920F920FB668
:101B00000F9211248F9380E280934F018F910F9059
:101B10000FBE0F901F9018951F920F920FB60F9245
:101B200011248F9380E180934F018F910F900FBE0E
:101B30000F901F9018951F920F920FB60F920BB631
:101B40000F9211242F933F934F935F936F937F9343
:101B50008F939F93AF93BF93EF93FF9384E0809312
:101B60004F01E0913605F0913705309709F009955E
:101B7000FF91EF91BF91AF919F918F917F916F9165
:101B80005F914F913F912F910F900BBE0F900FBE21
:101B90000F901F9018951F920F920FB60F9211245D
:101BA0008F9382E080934F018F910F900FBE0F9023
:101BB0001F9018951F920F920FB60F9211248F93BA
:101BC00081E080934F018F910F900FBE0F901F9077
:101BD0001895E9E4F1E09081907F908390818F7077
:101BE000892B808308958FEF0895089508950895AF
:101BF0008FEF08958091B9069091BA06089580E01C
:101C00000895089581E0089581E0089581E00895A0
:101C100008950895089508950895089508950895DC
:101C2000E7E3F1E0808183608083989AA09A8DB188
:101C3000806E8DB98EB1806E8EB90895E7E3F1E0C4
:101C4000808183608083989AA0988DB1806E8DB9D1
:101C50008EB1806E8EB90895CF92DF92EF92FF928F
:101C60000F931F93DF93CF93CDB7DEB727970FB6B0
:101C7000F894DEBF0FBECDBF0E94D914E091BE061E
:101C8000F091BF06C080E38005811681D0840E9458
:101C9000AF0C18161CF08AE093E006C0D801FC9047
:101CA000FF2039F489E293E00E9491340E94DB1412
:101CB00042C0BF2DB53021F48AE090E00E948A3402
:101CC000EDB7FEB73A970FB6F894FEBF0FBEEDBF63
:101CD00031962BE433E0ADB7BEB712963C932E930A
:101CE0001197C2821382F48215828D2D992787FD68
:101CF000909597838683C8010196918780870E947B
:101D000078341D830C83FA94F801F082EB821E82F2
:101D10001F828FEF9FEF9A8389838DB79EB70A96B4
:101D20000FB6F8949EBF0FBE8DBF0E94DB14CE018C
:101D300001960E94770C27960FB6F894DEBF0FBE6F
:101D4000CDBFCF91DF911F910F91FF90EF90DF906A
:101D5000CF9008951F920F920FB60F920BB60F926D
:101D600011242F933F934F935F936F937F938F93A0
:101D70009F93AF93BF93EF93FF9380E001C08F5F7A
:101D800090917B018917D8F38091460187FF04C0A9
:101D900081E08093FF0604C084E793E00E949134C1
:101DA00088E080934F018091460187FF06C08091B3
:101DB000BB06882311F00E942C0EE0913805F091AB
:101DC0003905309709F00995FF91EF91BF91AF91D7
:101DD0009F918F917F916F915F914F913F912F9143
:101DE0000F900BBE0F900FBE0F901F901895E0ED57
:101DF000F6E0A82FB92F8C9181938D9180933F01AC
:101E000086E0E03EF807B9F780E110923E0181508C
:101E1000E1F780E880933C0180913D0180FFFCCF99
:101E2000E9EEF6E080913F01819386E0E93FF80713
:101E3000C9F70895662309F43DC0262F2F70E1F5F8
:101E4000E0EDF6E0219120933F0126E0E03EF2072D
:101E5000C9F740E070E050E221C0442319F4109229
:101E60003C0102C050933C01FC01E20FF31FDF0173
:101E700020E13D9130933E012150D9F720913C0162
:101E8000206820933C0120913D0120FFFCCF20E100
:101E900030913E0131932150D9F74F5F242F30E02C
:101EA000E4E0220F331FEA95E1F726173707ACF27B
:101EB00080E0089581E0089581E00895613009F49B
:101EC00048C0262F2F7009F046C0E9EEF6E02191B8
:101ED00020933F0126E0E93FF207C9F762956F7052
:101EE0006150262F332727FD3095F4E0220F331F52
:101EF000FA95E1F7280F391F78E027C070933C016D
:101F0000F90180E1919190933E018150D9F7809140
:101F10003C01806880933C0180913D0180FFFCCFB3
:101F2000D9015097C9014096F90150913E01508363
:101F3000662319F04C914527408331961196E81796
:101F4000F90799F761502051304067FFD7CF80E003
:101F5000089581E0089581E008958091C00087FF91
:101F6000FCCF8091C0008F778093C0008091C60025
:101F700008959091C00095FFFCCF9091C0009F7D87
:101F80009093C0008093C60008958FEF089581302C
:101F900019F48091C80004C0882331F48091C000F6
:101FA000881F8827881F089580E00895CF93DF93C6
:101FB000EC0107C060919C0770919D0790E00E9422
:101FC0004C34FE01219684918823A1F7DF91CF91B3
:101FD000089586E084B985B988EF8AB980EF8BB916
:101FE00082E08DB908950E94E90F08958F3F09F4AA
:101FF00083C0282F30E0277030702330310509F47A
:1020000043C02430310554F42130310511F1223020
:1020100031055CF52115310571F070C025303105B1
:1020200009F44EC0253031050CF43CC02630310592
:1020300009F064C053C092B186958695869541E0BB
:1020400050E002C0440F551F8A95E2F7942B92B9D5
:1020500019C095B186958695869502C0220F331FCB
:102060008A95E2F7922B95B90DC098B18695869521
:10207000869541E050E002C0440F551F8A95E2F773
:10208000942B98B981E008959BB1869586958695A5
:1020900041E050E002C0440F551F8A95E2F7942BAF
:1020A0009BB9F0CF9EB186958695869541E050E02C
:1020B00002C0440F551F8A95E2F7942B9EB9E2CFD8
:1020C00091B386958695869541E050E002C0440F15
:1020D000551F8A95E2F7942B91BBD4CF94B3869584
:1020E0008695869541E050E002C0440F551F8A95C1
:1020F000E2F7942B94BBC6CF8FEF08958FEF08952E
:102100008F3F09F47BC0282F30E0277030702330D8
:10211000310509F446C02430310554F4213031052D
:1021200019F1223031056CF52115310571F068C0C7
:102130002530310509F453C0253031050CF440C079
:102140002630310509F05CC04AC092B1869586956B
:10215000869541E050E002C0440F551F8A95E2F792
:102160004095492342B91BC095B1869586958695C1
:1021700002C0220F331F8A95E2F72095292325B943
:102180000EC098B186958695869541E050E002C0D4
:10219000440F551F8A95E2F74095492348B981E0DD
:1021A00008959BB186958695869541E050E002C0E2
:1021B000440F551F8A95E2F7409549234BB9EFCF5D
:1021C0009EB186958695869541E050E002C0440F09
:1021D000551F8A95E2F7409549234EB9E0CF91B358
:1021E00086958695869541E050E002C0440F551FC4
:1021F0008A95E2F74095492341BBD1CF8FEF0895EF
:102200008FEF08958F3FB1F1282F30E027703070A5
:1022100023303105E9F02430310554F42130310503
:1022200099F02230310594F42115310559F022C07E
:102230002530310589F02530310564F0263031052F
:10224000C9F40CC020B10BC023B109C026B107C02E
:1022500029B105C02CB103C02FB101C022B330E0B9
:1022600086958695869502C0359527958A95E2F7DD
:10227000217001C02FEF822F08958F3F09F423C1F1
:10228000282F30E0277030702330310509F482C0E8
:10229000243031055CF421303105D9F1223031058B
:1022A0000CF052C02115310571F00FC125303105F8
:1022B00009F4BDC0253031050CF493C0263031053A
:1022C00009F003C1DAC090B1869586958695282FCE
:1022D000892F90E0022E02C0959587950A94E2F727
:1022E00080FD0BC032B181E090E002C0880F991FE1
:1022F0002A95E2F7382B32B966C032B181E090E01E
:1023000002C0880F991F2A95E2F78095832382B92E
:102310005AC043B186958695869550E0082E02C036
:10232000559547950A94E2F702C0220F331F8A950C
:10233000E2F740FD04C085B1822B85B944C085B168
:102340002095282325B93FC096B186958695869518
:10235000282F892F90E0022E02C0959587950A9428
:10236000E2F780FD0BC038B181E090E002C0880F39
:10237000991F2A95E2F7382B38B925C038B181E08A
:1023800090E002C0880F991F2A95E2F78095832379
:1023900088B919C099B1869586958695282F892F79
:1023A00090E0022E02C0959587950A94E2F780FD91
:1023B0000CC03BB181E090E002C0880F991F2A95C4
:1023C000E2F7382B3BB981E008953BB181E090E022
:1023D00002C0880F991F2A95E2F7809583238BB955
:1023E000F2CF9CB1869586958695282F892F90E00F
:1023F000022E02C0959587950A94E2F780FD0BC0E6
:102400003EB181E090E002C0880F991F2A95E2F763
:10241000382B3EB9D8CF3EB181E090E002C0880FA2
:10242000991F2A95E2F7809583238EB9CCCF9FB16F
:10243000869586958695282F892F90E0022E02C0DA
:10244000959587950A94E2F780FD0BC031B381E042
:1024500090E002C0880F991F2A95E2F7382B31BB14
:10246000B2CF31B381E090E002C0880F991F2A9566
:10247000E2F78095832381BBA6CF92B3869586959C
:102480008695282F892F90E0022E02C0959587957A
:102490000A94E2F780FD0BC034B381E090E002C003
:1024A000880F991F2A95E2F7382B34BB8CCF34B3B1
:1024B00081E090E002C0880F991F2A95E2F780958D
:1024C000832384BB80CF8FEF08958FEF08958F3FD4
:1024D00009F40DC1282F30E0662309F087C027706A
:1024E00030702330310509F445C02430310554F4EF
:1024F0002130310519F1223031056CF521153105F6
:1025000071F0F5C02530310509F452C02530310590
:102510000CF43FC02630310509F0E9C058C091B134
:1025200086958695869541E050E002C0440F551F80
:102530008A95E2F74095492341B9D7C094B1869571
:102540008695869502C0220F331F8A95E2F7209563
:10255000292324B9CAC097B186958695869541E00E
:1025600050E002C0440F551F8A95E2F74095492379
:1025700047B9BBC09AB186958695869541E050E0F3
:1025800002C0440F551F8A95E2F7409549234AB986
:10259000ACC09DB186958695869541E050E002C01D
:1025A000440F551F8A95E2F7409549234DB99DC0C8
:1025B00090B386958695869541E050E002C0440F21
:1025C000551F8A95E2F74095492340BB8EC093B3CF
:1025D00086958695869541E050E002C0440F551FD0
:1025E0008A95E2F74095492343BB7FC0277030703E
:1025F0002330310509F442C02430310554F4213030
:10260000310511F1223031055CF52115310571F0EC
:1026100070C02530310509F44DC0253031050CF46A
:102620003BC02630310509F064C052C091B1869597
:102630008695869541E050E002C0440F551F8A956B
:10264000E2F7942B91B951C094B186958695869501
:1026500002C0220F331F8A95E2F7922B94B945C02E
:1026600097B186958695869541E050E002C0440F6B
:10267000551F8A95E2F7942B97B937C09AB1869582
:102680008695869541E050E002C0440F551F8A951B
:10269000E2F7942B9AB929C09DB1869586958695C7
:1026A00041E050E002C0440F551F8A95E2F7942B99
:1026B0009DB91BC090B386958695869541E050E004
:1026C00002C0440F551F8A95E2F7942B90BB0DC0B2
:1026D00093B386958695869541E050E002C0440FFD
:1026E000551F8A95E2F7942B93BB81E008958FEFF5
:1026F00008958FEF0895882329F481E0019B03C09A
:1027000080E008958FEF0895009711F483E20EC0E2
:102710008130910511F48BE209C08230910511F4EA
:1027200083E304C08330910529F48BE30E943D11BB
:1027300081E008958FEF0895009711F483E20EC0B1
:102740008130910511F48BE209C08230910511F4BA
:1027500083E304C08330910529F48BE30E94F60FD4
:1027600081E008958FEF0895009711F483E20EC081
:102770008130910511F48BE209C08230910511F48A
:1027800083E304C08330910529F48BE30E94801019
:1027900081E008958FEF0895882319F085B78F7E23
:1027A00002C085B7806185BF81E008959091C8001F
:1027B00095FFFCCF8093CE0008959093C500809341
:1027C000C40086E08093C200E1ECF0E080818B7F62
:1027D0008083A0ECB0E08C9182608C9380818861D2
:1027E000808308959093CD008093CC0086E0809301
:1027F000CA00E9ECF0E080818B7F8083A8ECB0E038
:102800008C9182608C9380818861808308950F937E
:102810001F93CF93DF930E94DD13C9EBDFE00DEA36
:102820001FE0CE01B8010E94013490939D07809370
:102830009C07CE01B8010E94013490939B078093BE
:102840009A07DF91CF911F910F9108958091C80051
:1028500087FFFCCF8091C8008F778093C80080915C
:10286000CE00089500000000000000000197D1F79D
:1028700008950E94563508950E945E350895EF929E
:10288000FF920F931F93CF93DF93E82EE7017E0112
:10289000F92EE70180E090E00E945635082F8B83E7
:1028A00081E090E00E945635E82E8A8382E090E035
:1028B0000E945635F82E898383E090E00E945635B9
:1028C000182F888384E090E00E945635FE0CF00EAD
:1028D000F10E8F1511F481E001C08FEFDF91CF91E0
:1028E0001F910F91FF90EF900895CF93DF93EC012C
:1028F00085E090E00E945635888381E0DF91CF919A
:102900000895FC0186E090E060810E945E3581E0E0
:102910000895CF93DF93EC0186E090E00E94563556
:10292000888381E0DF91CF9108950F931F93CF9318
:10293000DF93082F192FC8E0D0E0CE010E94563552
:10294000F80181938F012196C831D105B1F781E05B
:10295000DF91CF911F910F9108950F931F93CF9304
:10296000DF93082F192FC8E0D0E0F80161918F01A3
:10297000CE010E945E352196C831D105B1F781E0C4
:10298000DF91CF911F910F910895CF93DF93EC01C9
:1029900087E090E00E945635888381E0DF91CF91F7
:1029A0000895FC0187E090E060810E945E3581E03F
:1029B0000895F8940895789408950E94D914FFCF4B
:1029C0000F931F93DF93CF93CDB7DEB7A3970FB6C7
:1029D000F894DEBF0FBECDBF0E94821980936907B5
:1029E0008F3F21F48EE060E00E9458170E94DF289C
:1029F00080FF04C086E060E00E94581710926C07C8
:102A000010927A071092790710926B0710926A075A
:102A100010927B07109278078FEF80936207809364
:102A200064078093630780936507809367078093AB
:102A3000660793E6909314078093120790933F07DD
:102A400080933D0781E897E09093800780937F070C
:102A5000FC013597F0938307E09382079F01265F7F
:102A60003F4F318720879487838712821182168691
:102A7000158610926F0710926E07F0930907E09386
:102A800008078E010F5F1F4FC8016EEF72E20E94B0
:102A90001A2BC8016AEE75E040E850E00E941E2B38
:102AA00085E58093EA0519861C861D861E861F868D
:102AB000188A198A1A8A1B8A1C8A1D8A1E8A1F8AEA
:102AC000188E198E1A8E1B8E1C8E1D8E1E8E1F8EBA
:102AD00018A219A21AA21BA281E0888792E09A8705
:102AE0008B87C8010E94D61DA3960FB6F894DEBF4F
:102AF0000FBECDBFCF91DF911F910F9108956091CF
:102B000012076F3F39F080913D07681719F485E08F
:102B10000E94581760913D076F3F39F0809112076E
:102B2000681719F485E00E9458170E94C01C992765
:102B300087FD90952BE230E0829FF001839FF00D9E
:102B4000929FF00D1124E65FF84F828580937B07FA
:102B5000F0937A07E0937907F0936B07E0936A07A5
:102B600080936C070E947E2B0E94682B0E94832B0F
:102B7000FFCFCF92DF92EF92FF920F931F93CF93ED
:102B8000DF93EC018B016A018985823021F080910D
:102B90006807888301C0188280916807823020F01E
:102BA00087E060E00E9458178985823029F0809183
:102BB00068078F5F8093680780916807882319F4FE
:102BC00081E0809368072881332727FD30958BE2C9
:102BD00090E0289FF001299FF00D389FF00D1124FF
:102BE000E65FF84F118300832885228728813327E9
:102BF00027FD3095289FF001299FF00D389FF00D9B
:102C00001124E65FF84F23E021874881242F3327E2
:102C100027FD3095289FF001299FF00D389FF00D7A
:102C20001124E65FF84F40872881332727FD309530
:102C3000289F8001299F100D389F100D1124065FD9
:102C4000184FF8011582CE010B960E947722F801E9
:102C500061A372A383A394A38B859C85AD85BE8558
:102C60008833F9E89F07F1E4AF07F0E0BF0720F0F1
:102C700086E168810E9458170881112707FD109589
:102C8000CE014B960E9477222BE2E22EF12C0E9D74
:102C9000F0010F9DF00D1E9DF00D1124E65FF84F21
:102CA000658B768B878B908F8881992787FD909590
:102CB0008E9D80018F9D100D9E9D100D1124065F2D
:102CC000184FF80185899689A789B08D21A132A175
:102CD00043A154A1820F931FA41FB51F818F928F10
:102CE000A38FB48FCE0143960E947722F80165A38B
:102CF00076A387A390A78881992787FD90958E9DBD
:102D0000F0018F9DF00D9E9DF00D1124E65FF84FB0
:102D100085A196A1A7A1B0A5858F968FA78FB0A3F7
:102D200081E090E092A781A7D382C28281E084876C
:102D3000DF91CF911F910F91FF90EF90DF90CF9097
:102D400008950E942423089585E690E00895E09177
:102D50007907F0917A0784870895E0917907F091D7
:102D60007A07848508952091E905222341F0FB012B
:102D7000208320913C05FC01208381E0089580E0C0
:102D800008958091E905882309F490C00E94D91420
:102D900086EB93E00E94D60F00D000D0EDB7FEB7CF
:102DA00031968EED93E0ADB7BEB712969C938E939D
:102DB000119780913C05828313820E9478340F9092
:102DC0000F900F900F9082EB93E00E94D60F8091AE
:102DD000E905883110F01092E9058091E90590E04D
:102DE00001978631910508F04BC080579F4FFC0139
:102DF000EE0FFF1F0590F491E02D099486E793E014
:102E000041C08FE493E03EC08BE393E03BC085E29A
:102E100093E038C08AE093E035C084EF92E032C09E
:102E20008CED92E02FC089EC92E02CC086EB92E012
:102E300029C088E992E026C083E792E023C087E6B4
:102E400092E020C08CE492E01DC08DE392E01AC0B5
:102E500089E292E017C088E192E014C084E092E039
:102E600011C084EE91E00EC08CEC91E00BC081EBC0
:102E700091E008C080EA91E005C081E991E002C0DC
:102E80008AE891E00E94D60F60919C0770919D079F
:102E90008DE090E00E944C3460919C0770919D07FA
:102EA0008AE090E00E944C341092E90580E0089599
:102EB0008093E90560933C050E94C11608958093B4
:102EC000E905E0917907F0917A07808580933C05C8
:102ED0000E94C1160895DF93CF930F92CDB7DEB74E
:102EE000198207C080ED97E00E940D2789818F5FCE
:102EF000898389818436B0F30F90CF91DF91089553
:102F000081E090E00E94B4130E946B1781E090E092
:102F10000E949C130E946B17089581E090E00E942C
:102F2000B4130E946B170E946B170E946B1781E00D
:102F300090E00E949C130E946B170895FF920F93DC
:102F40001F93DF93CF9300D00F92CDB7DEB700D0A1
:102F500000D000D0EDB7FEB731968E010F5F1F4F46
:102F6000ADB7BEB712961C930E9311972EED33E0BA
:102F700033832283848315820E94C834EDB7FEB761
:102F800036960FB6F894FEBF0FBEEDBFFF2472C099
:102F9000800F911FDC018C918433D1F1853370F463
:102FA0008133F9F0823320F4803309F05CC016C01D
:102FB000823311F1833309F056C023C08733C9F13E
:102FC000883330F4853369F1863309F04CC02CC066
:102FD0008833B1F1893309F046C03BC00E948D1798
:102FE00002C00E9480170E948D170E948D170E94B8
:102FF0008D170E948D1737C00E9480170E9480177E
:10300000F4CF0E9480170E9480170E948017EFCF94
:103010000E9480170E9480170E9480170E948017CC
:10302000E8CF0E94801702C00E948D170E9480176F
:1030300004C00E948D170E948D170E94801706C041
:103040000E948D170E948D170E948D170E94801775
:1030500008C00E948D170E948D170E948D170E9434
:103060008D170E9480170E946B170E946B170E9499
:103070006B17F394F80101900020E9F73197E01BFA
:10308000F10B8F2D90E08E179F0708F481CF0F90E2
:103090000F900F90CF91DF911F910F91FF900895A6
:1030A0004F925F926F927F928F929F92AF92BF9258
:1030B000CF92DF92EF92FF920F931F93CF93DF9304
:1030C00082EC93E00E94D60F00D000D081EE93E016
:1030D000ADB7BEB712969C938E931197E091790786
:1030E000F0917A078085992787FD909514969C9397
:1030F0008E9313970E947834E0917907F0917A07C4
:10310000C281D3818AEE93E0EDB7FEB792838183CB
:10311000D483C3830E947834EDB7FEB7319647EF6E
:10312000E42E43E0F42EADB7BEB71296FC92EE92B9
:1031300011978881828313820E94783434E0C32EF1
:1031400034E0D32EEDB7FEB7D282C182E091790789
:10315000F0917A0780819181ADB7BEB714969C93A8
:103160008E9313970E9478342EE0A22E24E0B22E84
:10317000EDB7FEB7B282A1828091790790917A076C
:10318000948383830E9478340AE017E00F900F90B5
:103190000F900F90C0E0D0E09EE1492E94E0592EB0
:1031A0009E2C6F2C7C2C8D2CC501BA2CA92E8BE269
:1031B000C82ED12CD8011296ED90FC90139700D018
:1031C00000D000D0EDB7FEB73196ADB7BEB71296BE
:1031D0005C924E921197D383C283F582E4820E945F
:1031E00078340F900F90EDB7FEB73196ADB7BEB7FC
:1031F00011969C92119712966C92D7018C918283B2
:1032000013820E947834EDB7FEB771828282D801B2
:103210008D919C91948383830E947834EDB7FEB79F
:10322000B182A282CC9DC001CD9D900DDC9D900D00
:103230001124865F984F948383830E94783421966B
:10324000055D1F4F0F900F900F900F90C230D1056A
:1032500009F0B0CFDF91CF911F910F91FF90EF90C8
:10326000DF90CF90BF90AF909F908F907F906F90A6
:103270005F904F900895CF93DF93E0917907F0919D
:103280007A07C281D3818881853539F00E94501830
:1032900081E00E945F1785E58883E0917907F091CE
:1032A0007A078081918122E48030920728F00E9481
:1032B000501882E10E945F17DF91CF9108959927FE
:1032C00087FD90952BE230E0829FF001839FF00D07
:1032D000929FF00D1124E65FF84FA281B3818C918B
:1032E000853519F085E58C9309C08081918122E4B0
:1032F0008030920728F082E10E945F178FEF0895D7
:1033000081E0089560916105709162058091630587
:1033100090916405E0E0F0E09B01AC010E2E04C04A
:1033200056954795379527950A94D2F720FD1AC0F0
:1033300021E030E040E050E00E2E04C0220F331FA9
:10334000441F551F0A94D2F7262B372B482B592B95
:1033500020936105309362054093630550936405A3
:103360008E2F08953196E032F105B1F68FEF089572
:10337000E0917907F0917A07658576858785908950
:103380000895DF92EF92FF920F931F93D82E81E062
:10339000E82EF12C012D112D0D2C04C0EE0CFF1C7C
:1033A000001F111F0A94D2F7809161059091620568
:1033B000A0916305B09164058E219F21A023B123C4
:1033C0000097A105B10509F45DC00E94D914E1E19F
:1033D000F7E0A8019701209530954095509563E05E
:1033E00081818F3F39F186819781A085B1858E15C6
:1033F0009F05A007B10731F412861386148615863F
:103400001082628386819781A085B1858223932370
:10341000A423B52386839783A087B187828593856C
:10342000A485B58582239323A423B523828793871C
:10343000A487B587BB9687E0E736F80789F62EEFB5
:103440003FEF4FEF5FEF04C0220F331F441F551FA4
:10345000DA94D2F78091610590916205A09163059D
:10346000B091640582239323A423B523809361053F
:1034700090936205A0936305B09364050E94DB14EA
:1034800081E001C08FEF1F910F91FF90EF90DF90CF
:103490000895EF92FF920F931F9321E030E040E0F8
:1034A00050E004C0220F331F441F551F8A95D2F7E6
:1034B000E0917907F0917A0785859685A785B0898F
:1034C00079018A01E822F9220A231B23E114F1047D
:1034D00001051105D1F02095309540955095822336
:1034E0009323A423B52385879687A787B08B8189EB
:1034F0009289A389B48982239323A423B523818B42
:10350000928BA38BB48B81E001C08FEF1F910F9141
:10351000FF90EF90089520916105309162054091F0
:10352000630550916405082E04C05695479537955C
:1035300027950A94D2F72170307021153105E9F0F2
:10354000E0917907F0917A0721E030E040E050E027
:1035500004C0220F331F441F551F8A95D2F785855B
:103560009685A785B089822B932BA42BB52B8587B5
:103570009687A787B08B81E008958FEF0895EF922B
:10358000FF920F931F93DF93CF930F92CDB7DEB7C8
:1035900091E0E92EF12C012D112D04C0EE0CFF1C41
:1035A000001F111F8A95D2F78091610590916205E5
:1035B000A0916305B09164058E219F21A023B123C2
:1035C0000097A105B10511F481E043C00E94D91410
:1035D000E1E1F7E020E033E080818130B9F48285D9
:1035E0009385A485B5858E219F21A023B1230097C3
:1035F000A105B10559F0328316861786108A118A03
:103600001082E286F3860487158721E0808182306C
:10361000A1F482859385A485B5858E159F05A007A5
:10362000B10759F4328316861786108A118A1082E0
:10363000128613861486158621E0BB9687E0E7364E
:10364000F80751F629830E94DB142981222329F4EB
:1036500082E00E94A7168FEF01C081E00F90CF910A
:10366000DF911F910F91FF90EF900895E0917907FE
:10367000F0917A072585368547855089262337239B
:1036800048235923211531054105510521F1618B4D
:10369000728B838B948B21E027830090690704C091
:1036A00096958795779567950A94D2F761707070B3
:1036B0006115710519F00E94CB1E04C080E090E0F6
:1036C0000E94F21EE0917907F0917A0721893289F0
:1036D0004389548903C020E030E0A901B901CA013F
:1036E0000895909178079923E9F4909162079F3F9C
:1036F00031F0909165079F3F21F421E003C020E065
:1037000001C022E030E0F901EE0FFF1FE20FF31FCE
:10371000EE59F84F82838083618381E0809378073C
:103720009F0102C020E030E0C901089527E0823601
:10373000920731F027E08536920721F481E0089561
:1037400080E008958FEF08950E94961B8F3F11F43B
:1037500081E002C0823021F40E94A7168FEF089505
:10376000992787FD9095FC01EE0FFF1FE80FF91FC9
:10377000EE59F84F8FEF80838283818380917807A1
:1037800081508093780781E008951F93CF93DF9352
:103790000E94961B182F8F3F11F481E003C08230E6
:1037A00029F482E00E94A7168FEF75C0282F3327D7
:1037B00027FD3095E901CC0FDD1FC20FD31FCE5975
:1037C000D84F9A81888198170CF064C00E94D91450
:1037D0008A818F5F8A83E0917907F0917A0714825A
:1037E00080911107823041F5212F332727FD309535
:1037F000432F532F60911B0770911C0780911D0769
:1038000090911E076217730784079507A9F483E058
:103810008093130710921F07109220071092210720
:10382000109222071092110710921B0710921C078A
:1038300010921D0710921E0780913C07823041F5BF
:10384000812F992787FD9095A92FB92F20914607A1
:103850003091470740914807509149072817390789
:103860004A075B07A9F483E080933E0710924A075A
:1038700010924B0710924C0710924D0710923C0784
:103880001092460710924707109248071092490776
:103890000E94DB1481E0DF91CF911F9108950F9377
:1038A0001F93DF93CF930F92CDB7DEB70E94961B85
:1038B0008F3F11F481E002C0823021F40E94A716EC
:1038C0008FEF40C089830E94D9148981082F112766
:1038D00007FD1095F801EE0FFF1FE00FF11FEE59E5
:1038E000F84F92819923B1F4E0917907F0917A072A
:1038F000978192609783992787FD9095A92FB92F7B
:10390000818B928BA38BB48B0E94DB1480E090E0C0
:103910000E94F21EF801EE0FFF1FE00FF11FEE599B
:10392000F84F828181508283A0917907B0917A0704
:1039300081811B968C931B9781E014968C930E9437
:10394000DB1481E00F90CF91DF911F910F910895CB
:103950000E94961B8F3F11F481E002C0823021F457
:103960000E94A7168FEF0895992787FD9095FC0177
:10397000EE0FFF1FE80FF91FEE59F84F82810895EF
:10398000E0916E07F0916F0780810895E0916E07D6
:10399000F0916F0703C00380F481E02D3097D9F7D1
:1039A0000895BF92CF92DF92EF92FF920F931F93F1
:1039B000CF93DF93E0910807F0910907309709F45E
:1039C0009BC040916E0750916F074115510509F456
:1039D00057C0DA012BE230E0C82FDD27C7FDD095B4
:1039E000C29FB001C39F700DD29F700D1124665FFE
:1039F000784F8B01065F1F4F94E0E92EF12CE60E05
:103A0000F71E9BE0C92ED12CC60ED71E6C9170E01C
:103A1000629FE001639FD00D729FD00D1124C65F9D
:103A2000D84F9C81992329F0BB84E8019881B9166D
:103A300048F1E7019881992371F0629FE001639F4B
:103A4000D00D729FD00D1124C65FD84FBA84E60105
:103A50009881B916B8F0629FE001639FD00D729F04
:103A6000D00D1124C65FD84F6A85E8019881691787
:103A700048F013960D90BC91A02D109739F602C016
:103A8000A0E0B0E08083C381D481D0930907C093C4
:103A90000807A417B507B1F4109749F0B483A383BE
:103AA000128211821296FC93EE93119706C0148233
:103AB000138212821182FA83E983F0936F07E093F5
:103AC0006E071AC011968D919C911297AC17BD0785
:103AD00059F092838183B483A3831196CD91DC91B5
:103AE0001297FC83EB8304C0148213829283818338
:103AF0001296FC93EE931197DF91CF911F910F9146
:103B0000FF90EF90DF90CF90BF900895CF93DF9319
:103B1000E0916E07F0916F07309709F444C0992740
:103B200087FD9095208130E02817390781F4A38123
:103B3000B481B0936F07A0936E0712961C921E92E9
:103B4000119718C00380F481E02D309761F1208136
:103B500030E028173907B1F7C181D2818381948180
:103B60009C838B83A381B481109721F01296DC9300
:103B7000CE931197A0910807B0910907109739F4D7
:103B8000F0930907E0930807148213820AC0B483F4
:103B9000A3831296FC93EE931197F0930907E09399
:103BA000080712821182DF91CF910895EF92FF9260
:103BB0000F931F93CF93DF93EC0169817A814B813F
:103BC0005C818D819E810E943D2BBC018F81882369
:103BD00069F04B815C81CE0120E030E000E010E034
:103BE000EE24FF240E94B9151F8214C028813327B8
:103BF00027FD30958BE290E0289FF001299FF00D82
:103C0000389FF00D1124E65FF84F81858330F9F479
:103C1000718360832881332727FD30958BE290E004
:103C2000289FF001299FF00D389FF00D1124E65FC9
:103C3000F84F85899689A789B08D0097A105B105B0
:103C400041F482E0818788810E94D11C02C08FEFFD
:103C500001C081E0DF91CF911F910F91FF90EF9014
:103C600008951F93DF93CF93CDB7DEB728970FB694
:103C7000F894DEBF0FBECDBF29833A834B835C83AC
:103C80006D837E838F8398870E94D9140E94552864
:103C9000182FCE0101960E9477226330710580F0C3
:103CA000E0917907F0917A07610F711D80E090E053
:103CB000658B768B878B908F0E94DB1481E001C02F
:103CC0008FEF28960FB6F894DEBF0FBECDBFCF9111
:103CD000DF911F9108950E940F2BE0917907F091D9
:103CE0007A0785818823B9F708951F93DF93CF93CF
:103CF000CDB7DEB728970FB6F894DEBF0FBECDBFA5
:103D000029833A834B835C836D837E838F8398877B
:103D10000E943B190E94D914E0917907F0917A072B
:103D200081E0858381E090E092A781A70E945528D9
:103D3000182FCE0101960E947722E0917907F09129
:103D40007A07610F711D811D911D658B768B878BA5
:103D5000908F183F88F40E94EC27212F30E02F5FCE
:103D60003F4F482F50E02417350734F4812F8E5FE2
:103D70008093E8050E94F0270E94DB140E946B1ECE
:103D800081E028960FB6F894DEBF0FBECDBFCF916D
:103D9000DF911F9108951F930E94D914E091790734
:103DA000F0917A0781E0858386830E945528182F39
:103DB000883F88F40E94EC27212F30E02F5F3F4F8F
:103DC000482F50E02417350734F4812F8E5F8093FD
:103DD000E8050E94F0270E94DB140E946B1E81E020
:103DE0001F9108951F93CF93DF93EC010E94D91484
:103DF000E0917907F0917A0781E08583CE01A0E018
:103E0000B0E0858B968BA78BB08F0E945528182F1A
:103E1000883F88F40E94EC27212F30E02F5F3F4F2E
:103E2000482F50E02417350734F4812F8E5F80939C
:103E3000E8050E94F0270E94DB140E946B1E81E0BF
:103E4000DF91CF911F910895EF92FF920F931F93EF
:103E5000DF93CF930F92CDB7DEB78C010E94D914B8
:103E6000E0917907F0917A0781E085830E945528D7
:103E7000E0917907F0917A07E82EFF240E0D1F1DBF
:103E800020E030E0058B168B278B308F883F90F435
:103E900089830E94EC270894E11CF11C282F30E054
:103EA0009981E216F30634F4892F8E5F8093E8053A
:103EB0000E94F0270E94DB140E946B1E81E00F908D
:103EC000CF91DF911F910F91FF90EF9008951F9375
:103ED000CF93DF93EC010E943B19209711F4C1E0CE
:103EE000D0E00E94D914E0917907F0917A0781E03F
:103EF0008583D2A7C1A70E945528182F883F88F430
:103F00000E94EC27212F30E02F5F3F4F482F50E0D9
:103F10002417350734F4812F8E5F8093E8050E94C3
:103F2000F0270E94DB140E946B1E81E0DF91CF918D
:103F30001F9108951F930E943B190E94D914E0918C
:103F40007907F0917A0781E090E092A781A781E05C
:103F500085830E945528182F883F88F40E94EC27FB
:103F6000212F30E02F5F3F4F482F50E024173507B7
:103F700034F4812F8E5F8093E8050E94F0270E9421
:103F8000DB140E946B1E81E01F910895E091790778
:103F9000F0917A0780850E94861DE0917907F09163
:103FA0007A0784E081870E949A1F81E008958F92AA
:103FB0009F92AF92BF92CF92DF92EF92FF920F93B8
:103FC0001F93DF93CF93CDB7DEB760970FB6F8940A
:103FD000DEBF0FBECDBF29873A874B875C876D87D1
:103FE0007E878F87988BCE0101960E943320CE0169
:103FF000099609851A852B853C854D855E856F85DB
:10400000788989809A80AB80BC80CD80DE80EF800B
:10401000F8840E9491208F3F61F029853A854B8575
:104020005C856D857E858F8598890E94751E81E0EF
:1040300001C08FEF60960FB6F894DEBF0FBECDBF04
:10404000CF91DF911F910F91FF90EF90DF90CF9074
:10405000BF90AF909F908F900895E0917907F09175
:104060007A0780850895EF92FF920F931F93CF9365
:10407000DF93EC011C821D821E821F8280917007DB
:1040800090917107A0917207B0917307888399830B
:10409000AA83BB83E0907407F090750700917607C0
:1040A00010917707EC82FD820E831F830E945528B2
:1040B000682F70E080E090E023EB36EE4EE050E0B9
:1040C0000E945A336E0D7F1D801F911F6C837D836C
:1040D0008E839F8313C080509A4CAA49BB438C8324
:1040E0009D83AE83BF8388819981AA81BB8101961C
:1040F000A11DB11D88839983AA83BB838C819D8177
:10410000AE81BF8180302AEC92072AE9A2072BE317
:10411000B20708F7DF91CF911F910F91FF90EF90B9
:1041200008958F929F92AF92BF92CF92DF92EF92BB
:10413000FF920F931F93DF93CF93CDB7DEB76097B6
:104140000FB6F894DEBF0FBECDBFFC0109831A8302
:104150002B833C834D835E836F83788789869A8621
:10416000AB86BC86CD86DE86EF86F88AE980FA804B
:104170000B811C812D813E814F815885A984BA8491
:10418000CB84DC848D859E85AF85B889EA14FB04D9
:104190000C051D0508F440C0AE14BF04C006D106CE
:1041A00091F4281739074A075B07B0F1281B390B30
:1041B0004A0B5B0B2483358346835783108211821D
:1041C0001282138227C0281739074A075B0790F429
:1041D0000894E108F10801091109EA18FB080C0923
:1041E0001D09E082F1820283138320503643454645
:1041F000544C08C0EA18FB080C091D09E082F18242
:1042000002831383281B390B4A0B5B0B24833583F2
:104210004683578381E001C08FEF60960FB6F89414
:10422000DEBF0FBECDBFCF91DF911F910F91FF90E9
:10423000EF90DF90CF90BF90AF909F908F900895B8
:10424000FC0114C020503A4C4A495B432483358317
:104250004683578320813181428153812F5F3F4FB5
:104260004F4F5F4F208331834283538324813581B5
:104270004681578120308AEC38078AE948078BE36A
:10428000580700F708958F929F92AF92BF92CF92F6
:10429000DF92EF92FF920F931F93DF93CF93CDB7EF
:1042A000DEB760970FB6F894DEBF0FBECDBF0983AF
:1042B0001A832B833C834D835E836F837887898643
:1042C0009A86AB86BC86CD86DE86EF86F88A2985FF
:1042D0003A854B855C85E980FA800B811C812E0D27
:1042E0003F1D401F511FFC012083318342835383B4
:1042F0002D853E854F855889ED80FE800F8118857C
:104300002E0D3F1D401F511F248335834683578345
:104310000E94202181E060960FB6F894DEBF0FBEA8
:10432000CDBFCF91DF911F910F91FF90EF90DF9064
:10433000CF90BF90AF909F908F900895609370073B
:10434000709371078093720790937307209374079B
:1043500030937507409376075093770708958F92AF
:104360009F92AF92BF92CF92DF92EF92FF920F9304
:104370001F93FC01208131814281538164817581C9
:1043800086819781211531054105510509F461C0E8
:10439000223431054105510508F062C05B016C0112
:1043A000EE24FF24870160E038C08A2CAB2DA65391
:1043B000F1E0AB1508F0F0E08C2D865691E08C15FD
:1043C00008F090E0F80F71E0F81708F070E0972B14
:1043D0007D2D755CE1E07D1508F0E0E0970F81E050
:1043E000971708F080E08E2B8E0DE1E08E1508F017
:1043F000E0E0EF0D71E0EF1508F070E0700FB1E054
:10440000701708F0B0E0B10FA82CBA2ECF2ED92E1D
:10441000E82EFE2E072F1B2F6F5F862F90E0A0E067
:10442000B0E082179307A407B50708F4BECF950143
:10443000A601B701C801A3EBAA2EF6EEBF2EEEE04F
:10444000CE2EDD24EE24FF2400E010E00E94AE2BEF
:1044500009C023EB36EE4EE050E00E94793302C0F3
:1044600020E030E0C9011F910F91FF90EF90DF90A5
:10447000CF90BF90AF909F908F900895EF92FF9252
:104480000F931F93DF93CF93CDB7DEB728970FB667
:10449000F894DEBF0FBECDBF7B018C01BAE016954C
:1044A0000795F794E794BA95D1F7E982FA820B83DE
:1044B0001C8373708070907023EB36EE4EE050E0FA
:1044C0000E945A336D837E838F8398872E2D3A8185
:1044D0004B815C8128960FB6F894DEBF0FBECDBF2E
:1044E000CF91DF911F910F91FF90EF9008958F92E0
:1044F0009F92AF92BF92CF92DF92EF92FF920F9373
:104500001F93FC0120813181428153816481758137
:1045100086819781211531054105510509F45BC05C
:104520005B016C01EE24FF24870160E038C08A2C17
:10453000AB2DA653F1E0AB1508F0F0E08C2D8656BC
:1045400091E08C1508F090E0F80F71E0F81708F092
:1045500070E0972B7D2D755CE1E07D1508F0E0E0C3
:10456000970F81E0971708F080E08E2B8E0DE1E029
:104570008E1508F0E0E0EF0D71E0EF1508F070E047
:10458000700FB1E0701708F0B0E0B10FA82CBA2E90
:10459000CF2ED92EE82EFE2E072F1B2F6F5F862FD2
:1045A00090E0A0E0B0E082179307A407B50708F4F5
:1045B000BECF9501A601B701C801E3EBAE2E06EE12
:1045C000B02E1EE0C12EDD24EE24FF2400E010E01A
:1045D0000E94AE2B06C023EB36EE4EE050E00E9468
:1045E0007933B901CA011F910F91FF90EF90DF90CD
:1045F000CF90BF90AF909F908F9008950F931F938F
:1046000001E012E00E943B190E94EC27843028F45C
:1046100000936D070E940F2B08C08AE090E00E9473
:104620000D2710936D070E94032B8091EA058535B5
:1046300019F088E00E945F1780917E41853511F363
:1046400088E00E945F17DECF2F923F924F925F92D9
:104650006F927F928F929F92AF92BF92CF92DF9292
:10466000EF92FF920F931F93DF93CF9300D000D070
:10467000CDB7DEB70E9408270E94DB140E943927BD
:104680000E9441279A8389838AEF0E94F0276091D4
:10469000E80570E080E090E023EB36EE4EE050E07D
:1046A0000E945A337B018C018091740790917507A9
:1046B000A0917607B0917707E80EF91E0A1F1B1F1D
:1046C000C801B7010E947933E61AF70A080B190BE3
:1046D0008091700790917107A0917207B091730754
:1046E00063EBA62E66EEB62E6EE0C62ED12C14C05D
:1046F00080E096E3A5E6B4ECE80EF91E0A1F1B1F46
:10470000C801B701A60195010E947933E61AF70A9C
:10471000080B190BD401C3013C014D010894611C25
:10472000711C811C911CE0E0EE16EAECFE06EAE941
:104730000E07EBE31E07E0F6809370079093710776
:10474000A0937207B0937307E0927407F092750715
:104750000093760710937707E0917907F0917A0735
:104760008581882339F18185843021F187818230E8
:1047700029F0882341F08681882311F485E001C067
:1047800083E0818714C083E0818717821682858940
:104790009689A789B08D0097A105B10541F4818D57
:1047A000928DA38DB48D858B968BA78BB08F8085D2
:1047B0000E94861DE0917907F0917A0785A196A164
:1047C000A7A1B0A50097A105B10509F444C0608573
:1047D000662309F440C081858430E9F1258D368D4A
:1047E000478D50A18091E80590E0A0E0B0E0281747
:1047F00039074A075B0760F482E00E945817E0918E
:104800007907F0917A07158E168E178E10A208C0C0
:10481000281B390B4A0B5B0B258F368F478F50A314
:10482000E0917907F0917A070085258D368D478DC7
:1048300050A1211531054105510569F483E0602F30
:104840000E945817E0917907F0917A0783E08187F9
:10485000802F0E94861D5FE1E52E57E0F52EC701EF
:10486000409700E61AEE992441E0242E312C3AEFCD
:10487000432E512C612C712C22E0822E68019C83E6
:104880008B835701AB81BC8113968C9113978F3F1B
:1048900009F415C11C92882309F46DC014968C91FB
:1048A0001497843009F467C0F50180819181A28159
:1048B000B381E090E805FF2400E010E08E159F052D
:1048C000A007B10748F08E199F09A00BB10B808398
:1048D0009183A283B38306C0D5011D921D921D92C0
:1048E0001C921397EB81FC8184899589A689B789ED
:1048F0008E159F05A007B10748F08E199F09A00BE0
:10490000B10B848B958BA68BB78B23C0AB81BC81FD
:104910005C962D913D914D915C915F97E216F30667
:104920000407150750F42E193F09400B510BFD01E8
:10493000248B358B468B578B0CC0C801B7010E9466
:104940007933AB81BC8154966D937D938D939C9309
:104950005797EB81FC8184899589A689B78900974F
:10496000A105B10541F4848D958DA68DB78D848BFD
:10497000958BA68BB78BAB81BC8114968C911497C9
:10498000833009F09CC0F50180819181A281B381BF
:104990000097A105B10509F07EC0AB81BC811296DC
:1049A0008C9112978823C1F011968C9111978823CE
:1049B00099F081E090E0A0E0B0E00090690704C0C9
:1049C000880F991FAA1FBB1F0A94D2F7EB81FC81A5
:1049D00084879587A687B787AB81BC8112961C9286
:1049E000129711961C9211971C92F5016489758992
:1049F0005C96ED90FD900D911C915F97EB81FC8191
:104A000080A191A1A2A1B3A161307105E9F4808FC9
:104A1000918FA28FB38F848284899589A689B78963
:104A2000F50180839183A283B383E114F10401052E
:104A3000110531F4D5014D925D926D927C921397E0
:104A4000892D0E94D11C27C0EB81FC81808F918F22
:104A5000A28FB38F6150704080E090E0A801970171
:104A60000E945A33D5016D937D938D939C93139738
:104A7000EB81FC81648B758B868B978BE114F10441
:104A80000105110529F44D925D926D927C92139768
:104A9000F501358A248AD5012D913D914D915C9186
:104AA0001397211531054105510549F0C601A0E0D4
:104AB000B0E0281739074A075B0708F469019394A7
:104AC000EBE2F0E0AE0EBF1E8B819C818B969C8347
:104AD0008B83992D923009F0D5CE86010E94C01C9F
:104AE000E82E282F332727FD30958BE290E0289F72
:104AF000F001299FF00D389FF00D1124E65FF84F6B
:104B0000A284A0927B07F0936B07E0936A07EE20E4
:104B1000F9F085A196A1A7A1B0A50097A105B105BF
:104B200099F0258D368D478D50A12A3F31054105DD
:104B3000510550F4B60180E090E02617370748078A
:104B40005907E8F489011BC00B3F1105C0F012C0E2
:104B500004301105A0F0C60103978A3F910538F48F
:104B60008C018230910558F402E010E008C00D3F3E
:104B7000110519F00AEF10E002C007EF10E0A09253
:104B80006C07F0937A07E09379070093E8050E9499
:104B9000552890E001968017910740F00E94552813
:104BA000082F10E00E5F1F4F0093E805EE2011F074
:104BB00010926D07802F0E94F02789819A816CEDF9
:104BC00075E00E9454270E94772B0E94832B0F9040
:104BD0000F900F900F90CF91DF911F910F91FF9049
:104BE000EF90DF90CF90BF90AF909F908F907F908D
:104BF0006F905F904F903F902F90089540918C0759
:104C00001416B4F0242F332727FD3095220F331FBD
:104C1000220F331FF901E357F84F60832157384FB4
:104C2000F901918380834F5F40938C0781E0089561
:104C30008FEF08950F931F93CF93DF93062F20914B
:104C40008C07332727FD309510E090E033C0AE018C
:104C5000440F551F440F551FFA01E357F84F608169
:104C6000772767FD70956817790719F5FE01EF56EC
:104C7000F84F8081882369F481E080834157584F41
:104C8000DA01ED91FC9180E0602F40E050E020E0FF
:104C90000995CC0FDD1FCC0FDD1FC157D84FE88120
:104CA000F98181E0602F40E050E020E00995812FFC
:104CB00007C01F5FC12FD0E0C217D30744F28FEFA8
:104CC000DF91CF911F910F91089590E020918C0773
:104CD000332727FD3095281739072CF481E00E94EF
:104CE000A7168FEF0895FC01EE0FFF1FEE0FFF1FB9
:104CF000E157F84F0190F081E02D82E060E040E064
:104D000050E020E009950895DB01242F90E06091A8
:104D10008C07772767FD7095681779072CF481E079
:104D20000E94A7168FEF0895FC01EE0FFF1FEE0FF4
:104D3000FF1FE157F84F0190F081E02D86E060E021
:104D4000AD0109950895DB01242F90E060918C0757
:104D5000772767FD7095681779072CF481E00E942A
:104D6000A7168FEF0895FC01EE0FFF1FEE0FFF1F38
:104D7000E157F84F0190F081E02D85E060E0AD0152
:104D800009950895242F90E0E0918C07FF27E7FD17
:104D9000F095E817F9072CF481E00E94A7168FEF31
:104DA0000895FC01EE0FFF1FEE0FFF1FE157F84FB4
:104DB0000190F081E02D84E040E050E009950895F5
:104DC00090E020918C07332727FD3095281739076D
:104DD0002CF481E00E94A7168FEF0895FC01EE0FDE
:104DE000FF1FEE0FFF1FE157F84F0190F081E02DFC
:104DF00083E040E050E020E00995089589E0809349
:104E000021018DE89CE39093290180932801089566
:104E10001092250110922401089500000000000066
:104E20000000000000000000000000000000000082
:104E30000000019791F70895109221010895DF93E2
:104E4000CF9300D0CDB7DEB780912401909125019A
:104E50009A83898329813A81C9010F900F90CF915C
:104E6000DF91089510928100089581E08093810080
:104E7000089583B5816083BD1092850010928400EF
:104E80000895DF93CF9300D0CDB7DEB78091840033
:104E9000909185009A83898329813A81C9010F9075
:104EA0000F90CF91DF910895EF92FF920F931F9390
:104EB000CF93DF93EC01CC0FDD1F8FEFC937D807FD
:104EC00010F0C0E0D0E07E0100E010E080E090E073
:104ED000E60EF71E081F191F91E0E91690E0F9068B
:104EE00091E0090790E0190768F080E090E0AFEFEB
:104EF000BFEFE80EF91E0A1F1B1F0E944127C817AB
:104F0000D907D8F30E9441278E159F05D8F3DF916A
:104F1000CF911F910F91FF90EF9008951092B100E3
:104F2000E0E7F0E080818D7F808380818E7F8083C9
:104F300008958093B2000895E0E7F0E080818360F7
:104F4000808383E08093B100089583B5826083BD40
:104F50001092B20010923D051092E80508958EEF70
:104F60008093E80590E29093B6008093B30083E0CD
:104F700087BB92E09093B0008093B10093B59260AC
:104F800093BD87BB84BD83B5826083BD10928000D2
:104F900081E080938100109285001092840083B597
:104FA000826083BD83B5816083BD10922001109221
:104FB00025011092240183B5826083BD83B5816091
:104FC00083BD0E94A5270E9408270E949C270E945B
:104FD000FE2610923D0508958091B3008F5F0895DD
:104FE00081508093B3000895882311F410927100CA
:104FF0008FEF0895882331F4109295001092940059
:1050000081E008958FEF0895882329F4209194007A
:105010003091950002C020E030E0C9010895882356
:1050200029F482E08093710081E008958FEF089564
:105030008823B9F5CB0101978530910510F4609371
:10504000E7051092900088E08093910050939900BA
:105050004093980030933B0520933A058091E705F3
:10506000813021F48091910081600BC0823021F465
:1050700080919100826005C0833039F48091910065
:1050800083608093910081E00895843021F48091C1
:1050900091008460F6CF853031F480919100856075
:1050A000F0CF8FEF089581E008958091B2000895C8
:1050B0001F920F920FB60F920BB60F9211242F93DF
:1050C0003F934F935F936F937F938F939F93AF9390
:1050D000BF93EF93FF938AE060E00E945817FFCFE1
:1050E0000F920FB60F921F922F923F924F925F92A4
:1050F0006F927F928F929F92AF92BF92CF92DF92E8
:10510000EF92FF920F931F932F933F934F935F93D1
:105110006F937F938F939F93AF93BF93CF93DF93BF
:10512000EF93FF93A0917907B0917A070DB60D9296
:105130000EB60D921F92A091E505B091E6051E9066
:10514000BEBFADBF08951F920F920FB60F920BB660
:105150000F9211242F933F934F935F936F937F93FD
:105160008F939F93AF93BF93EF93FF93E0913A0593
:10517000F0913B05309711F0099504C08AE060E09A
:105180000E945817FF91EF91BF91AF919F918F911E
:105190007F916F915F914F913F912F910F900BBE37
:1051A0000F900FBE0F901F9018951F920F920FB681
:1051B0000F9211240F900FBE0F901F90189504B6F8
:1051C00003FC02C080E001C080E104B602FE06C01C
:1051D00094B79B7F94BF04B600FE846004B601FEC2
:1051E00005C094B79D7F94BF82600895882361F4C1
:1051F00004B600FE04C094B79E7F94BF01C081E056
:105200009091B000911181600895882311F4E89A7B
:1052100039C0813011F4E99A0895823011F4EA9A84
:1052200031C0833021F480916B00816029C08430CB
:1052300021F480916B00826023C0853021F480913D
:105240006B0084601DC0863021F480916B00886003
:1052500017C0873021F480916B00806111C08830C5
:1052600021F480916B0080620BC0893021F4809121
:105270006B00806405C08A3039F480916B008068CF
:1052800080936B0081E008958FEF0895882311F4D7
:10529000E89839C0813011F4E9980895823011F40A
:1052A000E99831C0833021F480916B008E7F29C052
:1052B000843021F480916B008D7F23C0853021F4F0
:1052C00080916B008B7F1DC0863021F480916B0034
:1052D000877F17C0873021F480916B008F7E11C0CB
:1052E000883021F480916B008F7D0BC0893021F4D0
:1052F00080916B008F7B05C08A3039F480916B0000
:105300008F7780936B0081E008958FEF0895882355
:1053100039F55093950740939407662321F48091C3
:1053200069008C7F66C0613049F4809169008D7F8F
:10533000809369008091690081605BC0623049F4AC
:1053400080916900826080936900809169008E7FFE
:1053500050C0633009F062C080916900836049C029
:10536000813031F55093930740939207662321F4DF
:1053700080916900837F3DC0613049F4809169006C
:10538000877F8093690080916900846032C06230B9
:1053900049F4809169008860809369008091690078
:1053A0008B7F27C06330D1F5809169008C6021C06C
:1053B000823041F55093970740939607662321F476
:1053C000809169008F7C15C0613049F4809169003B
:1053D0008F7D809369008091690080610AC062308E
:1053E00059F480916900806280936900809169001E
:1053F0008F7E8093690012C0633081F480916900D0
:105400008063F7CF8350883058F4809168008160C2
:1054100080936800509399074093980781E008951E
:105420008FEF08951F920F920FB60F920BB60F9247
:1054300011242F933F934F935F936F937F938F9399
:105440009F93AF93BF93EF93FF93E0919807F091F1
:105450009907309711F0099504C08AE060E00E9436
:105460005817FF91EF91BF91AF919F918F917F91CD
:105470006F915F914F913F912F910F900BBE0F90C5
:105480000FBE0F901F9018951F920F920FB60F929C
:105490000BB60F9211242F933F934F935F936F930B
:1054A0007F938F939F93AF93BF93EF93FF93E0917D
:1054B0009407F0919507309711F0099504C08AE0A0
:1054C00060E00E945817FF91EF91BF91AF919F91BB
:1054D0008F917F916F915F914F913F912F910F909D
:1054E0000BBE0F900FBE0F901F9018951F920F923A
:1054F0000FB60F920BB60F9211242F933F934F9339
:105500005F936F937F938F939F93AF93BF93EF932B
:10551000FF93E0919207F0919307309711F009956E
:1055200004C08AE060E00E945817FF91EF91BF919C
:10553000AF919F918F917F916F915F914F913F912B
:105540002F910F900BBE0F900FBE0F901F901895CC
:105550001F920F920FB60F920BB60F9211242F933A
:105560003F934F935F936F937F938F939F93AF93EB
:10557000BF93EF93FF93E0919607F09197073097D1
:1055800011F0099504C08AE060E00E945817FF916D
:10559000EF91BF91AF919F918F917F916F915F91AB
:1055A0004F913F912F910F900BBE0F900FBE0F9018
:1055B0001F9018950E94D914A89584B7877F84BF3F
:1055C000E0E6F0E080818861808310820E94DB1435
:1055D00008950E94D914A89584B7877F84BFE0E618
:1055E000F0E08081886180838DE080830E94DB14FD
:1055F000089504B603FC02C081E008958FEF08957A
:10560000A8950895089583B7817F866083BF83B787
:10561000816083BF889583B78E7F83BF089583B7EA
:10562000817F83BF83B7816083BF889583B78E7F77
:1056300083BF0895FC01768365830895EF92FF92FE
:105640000F931F93CF93DF93EC018B017A014032CC
:10565000510518F481E10E945F170894E108F108F0
:10566000E00EF11EFA82E9821C830B83DF91CF9159
:105670001F910F91FF90EF90089525E5FA01208387
:10568000FB013297908381831292129212921292AE
:1056900012921292129212921292129212921292EA
:1056A00012921292129212921292129212921292DA
:1056B00012921292129212921292129212921292CA
:1056C000129212921292129212921292CF01089595
:1056D00085E580937E41EEEFF1E4F093E605E093FB
:1056E000E50581EA96E190838093FF41089581EA80
:1056F00096E19093FE418093FF4108950E94AF2769
:105700000E94DB140895A0916A07B0916B07CD91B8
:10571000CDBFDD91DEBFFF91EF91DF91CF91BF91C2
:10572000AF919F918F917F916F915F914F913F9139
:105730002F911F910F91FF90EF90DF90CF90BF902E
:10574000AF909F908F907F906F905F904F903F9021
:105750002F901F900F900FBE0F901895A8E3B0E008
:10576000E4EBFBE20C94B63329833A834B835C83EE
:105770006D837E838F839887A986BA86CB86DC86E5
:10578000ED86FE860F87188BE984FA840B851C85CD
:105790002D853E854F85588929803A804B805C80D5
:1057A0002DA23EA24FA258A6AD80BE80CF80D88445
:1057B000211531054105510509F0BEC3AE14BF04E2
:1057C000C006D10608F04FC120E0E21620E0F20644
:1057D00021E0020720E0120758F43FEFE316F1043E
:1057E0000105110509F090F420E030E0A90117C08F
:1057F00040E0E41640E0F40640E0040741E014070E
:1058000050F420E130E040E050E009C028E030E012
:1058100040E050E004C028E130E040E050E0D80132
:10582000C701022E04C0B695A795979587950A944F
:10583000D2F7815D9B4FDC016C9180E290E0A0E0AB
:10584000B0E0821B930BA40BB50B861B9109A10939
:10585000B1090097A105B105A1F1082E04C0EE0C15
:10586000FF1C001F111F0A94D2F7A6019501082EF4
:1058700004C0220F331F441F551F0A94D2F760E261
:1058800070E0681B790BADA0BEA0CFA0D8A404C067
:10589000D694C794B794A7946A95D2F7A22AB32A4C
:1058A000C42AD52A2DA03EA04FA058A404C0220C83
:1058B000331C441C551C8A95D2F72DA23EA24FA240
:1058C00058A6380188249924A80197014070507087
:1058D0002D8F3E8F4F8F58A3C601B501A4019301B0
:1058E0000E947933222E532E442E352E69A37AA39B
:1058F0008BA39CA3C601B501A40193010E94793337
:10590000822D952DA42DB32D898F9A8FAB8FBC8FAF
:10591000BC01CD012D8D3E8D4F8D58A10E945A3373
:105920005B016C0149A15AA16BA17CA1DA01992705
:1059300088272DA03EA04FA058A4920144275527A8
:10594000822B932BA42BB52B8A159B05AC05BD058B
:1059500030F5298D3A8D4B8D5C8D21503040404083
:105960005040298F3A8F4B8F5C8F8E0D9F1DA01F4B
:10597000B11F8E159F05A007B10788F08A159B05FA
:10598000AC05BD0560F42150304040405040298FA7
:105990003A8F4B8F5C8F8E0D9F1DA01FB11FAC01E6
:1059A000BD014A195B096C097D095A016B01CB01E4
:1059B000BA01A40193010E947933222E532E442E62
:1059C000352E69A37AA38BA39CA3C601B501A401BC
:1059D00093010E947933A22CB52CC42CD32CC60180
:1059E000B5012D8D3E8D4F8D58A10E945A333B013C
:1059F0004C0169A17AA18BA19CA1AB01332722277D
:105A00008DA19EA1AFA1B8A5A070B070282B392B95
:105A10004A2B5B2B2615370548055905C0F4089419
:105A2000A108B108C108D1082E0D3F1D401F511F0C
:105A30002E153F054007510750F02615370548053C
:105A4000590528F40894A108B108C108D108898D26
:105A50009A8DAB8DBC8D8C01FF24EE24EA28FB28A7
:105A60000C291D29B3C4E114F1040105110559F4F1
:105A700061E070E080E090E0A80197010E94793336
:105A800079018A0110C090E0E91690E0F90691E0F2
:105A9000090790E0190758F4AFEFEA16F104010581
:105AA000110509F090F420E030E0A90117C0B0E042
:105AB000EB16B0E0FB06B0E00B07B1E01B0750F4BB
:105AC00020E130E040E050E009C028E030E040E074
:105AD00050E004C028E130E040E050E0D801C701C8
